:030000000206BA3B
:0C06BA00787FE4F6D8FD75810702070187
:100A8E00119382C6446C28391133226644CC88995E
:080A9E00119988CC4466223353
:100A1A0081050081B10081B00081B30081B20081FB
:100A2A00000081010081020181030181040081AF7C
:010A3A0000BB
:1008AA00E47806F2781AF2FFE4FEEF75F008A42461
:1008BA002E2EF874FFF2EF75F008A4246E2EF87449
:1008CA004FF20EEEB408E30FEFB408DC782E74F79B
:0508DA00F2E4786EF26B
:0108DF0022F6
:08090D00E993F5907F027E00E2
:10091500E4FDFCC3ED9FEC9E5015E4FBFA0BBB0018
:0F092500010AEB64724A70F50DBD00010C80E40D
:0109340022A0
:0E0AF100EF1392E8EFA2E192A0A2E292A722F8
:100AA60020A10678007401F222E47800F278B0E220
:030AB60004F22225
:0E0AFF0020A20678017401F222E47801F222AE
:100AB90020A30678027401F222E47802F278B0E207
:030AC90004F22212
:100ACC0020A40678037401F222E47803F278B0E2F1
:030ADC0004F222FF
:0E0B0D0020A50678047401F222E47804F22296
:1009F600EF700578B2E204F2EFB4010578B3E204D1
:100A0600F2EFB4020578B2E214F2EFB4030578B35C
:040A1600E214F222D2
:10098500EF700678AE748FF222EFB4010678AE747C
:100995004FF222EFB4020678AE742FF222EFB403C1
:0709A5000578AE741FF22279
:1007460078AFE2FE70187803E225E025E0FD780038
:10075600E275F008A42DFD7802E22DFF8049EEB483
:1007660001157802E275F008A4FF7800E225E0257D
:10077600E02FFF7803802B78AFE2FEB402117800F9
:10078600E225E0FF7803E22FFF18E225E08014EE71
:10079600B403147803E275F008A4FF7800E22FFF93
:0707A6007802E225E02FFFBD
:0107AD002229
:1008E00078AFE2FF120A7678B2E22FFE78AFE2FF2D
:1008F000EF7002FF22EFB401037F0122EFB4020385
:0D0900007F0022EFB403037FFF227F00225F
:100A7600EF70037F0122EFB401037F0022EFB4027F
:080A8600037FFF22EF7F002235
:10085C007804E26401702078B6F2E4F9E9900A9E1B
:10086C009354F012090F09E9B408F178B6E204F2D6
:10087C00E2C3940540E4227801E26401701F78B66B
:10088C00F2E4F9E9900A9693540F12090F09E9B4AE
:0D089C0008F178B6E204F2E2C3940540E4EE
:0108A900222C
:1009350078AFE2FF120A3C78B2E22FFE78AFE2FF11
:10094500EF70037F0122EFB401037F0022EFB402B1
:08095500037FFF22EF7F002267
:100A3C00EF7002FF22EFB401037FFF22EFB4020339
:0D0A4C007F0022EFB403037F01227F002210
:10095D0078AFE2FF120A5978B2E22FFE78AFE2FFCC
:10096D00EF70037FFF22EFB401037F0022EFB4028B
:08097D00037F0122EF7F00223D
:100A5900EF7002FF22EFB401037F0122EFB402031A
:0D0A69007F0022EFB403037FFF227F0022F5
:1007AE00E478B5F2E4F9900A8E12090D09E9B4085D
:1007BE00F578B5E22401FFE433FE7C007D191208C2
:1007CE0007ED70297801F27804F27F01120AF17FA9
:1007DE00057E00120915120AFF120AF11F120AF104
:1007EE000F120915120B0D120AF112085C78B5E200
:0807FE0004F2E2C3946C40AC6C
:0108060022CF
:1009AC00E478B5F2E4F9900A9E12090D09E9B4084D
:1009BC00F578B5E204F2E2C3943340E878AFE22470
:0409CC00035403F2DB
:0109D0002204
:1009D100E478B5F2E4F9E9900A9612090E09E9B44E
:1009E10008F478B5E204F2E2C3943340E778AFE269
:0409F100045403F2B5
:0109F50022DF
:10000300E4FF7E01FD78B4F278B4E2FCC3941450AB
:100013001374062CF8E4F2741A2CF8E4F278B4E2C0
:1000230004F280E474062FF8E4F2741A2FF8E4F271
:10003300EF6E70030201B2EF75F01484ACF0740636
:100043002CF8E278B3F2FB741A2CF8E278B2F2E2FD
:10005300F9EB75F008A4242E29F8E220E33B0D7890
:10006300B3E2FC75F008A4246F29F8E2FBEDC39B0F
:10007300502678B2E2F9EC75F008A4246F29F8ED64
:10008300F2EE75F01484ABF074062BF8ECF2E9048D
:10009300FC741A2BF8ECF20E1D78B2E2FC08E2FBBA
:1000A30075F008A4242E2CF8E220E23A0DEB75F04B
:1000B30008A424762CF8E2FCEDC39C502878B2E225
:1000C300F908E2FC75F008A4247629F8EDF2EC04B3
:1000D300FCEE75F01484ABF074062BF8ECF2741A92
:1000E3002BF8E9F20E1D78B2E2FC08E2FB75F0088A
:1000F300A4242E2CF8E220E13A0DEB75F008A42499
:100103006D2CF8E2FCEDC39C502878B2E2F908E2CA
:10011300FC75F008A4246D29F8EDF2EE75F0148453
:10012300ABF074062BF8ECF2E914FC741A2BF8EC20
:10013300F20E1D78B2E2FC08E2FB75F008A4242E4F
:100143002CF8E220E03A0DEB75F008A424662CF8B5
:10015300E2FCEDC39C502878B2E2F908E2FC75F0AA
:1001630008A4246629F8EDF2EC14FCEE75F014846F
:10017300ABF074062BF8ECF2741A2BF8E9F20E1DAF
:100183000FEF75F01484ACF074062CF8E278B3F238
:10019300FB741A2CF8E278B2F2E2FCEB75F008A4D7
:1001A300246E2CF8E26D70030200330D02003378E5
:1001B300ADE2FD78B37407F218F2E478B4F278B4E0
:1001C300E2FFC39414501374062FF8E4F2741A2F49
:1001D300F8E4F278B4E204F280E4E478B4F2E2FF03
:1001E3002406F87407F2741A2FF87407F2ED7003FB
:1001F30002036E78B3E214FFC39400404AEFD39432
:1002030007504418E2FF08E2FE75F008A424662FA5
:10021300F8E2FCED146C702FEE75F008A4242E2F79
:10022300F8E220E02278B4E204F278B3E214FF7833
:10023300B4E2FE2406F8EFF278B2E2FF741A2EF865
:10024300EFF278B30202F978B3E22401FFE433FE5C
:10025300C364809480404FD3EF9407EE648094800E
:10026300504418E2FF08E2FE75F008A424762FF844
:10027300E2FCED146C702FEE75F008A4242E2FF819
:10028300E220E22278B4E204F278B3E204FF78B425
:10029300E2FE2406F8EFF278B2E2FF741A2EF8EFCA
:1002A300F278B302036778B2E214FFC39400404DBF
:1002B300EFD394075047E2FF08E2FE75F008A42449
:1002C3006D2FF8E2FCED146C7033EE75F008A42486
:1002D3002E2FF8E220E12678B4E204F278B3E2FFAD
:1002E30078B4E2FE2406F8EFF278B2E214FF741A4F
:1002F3002EF8EFF278B2E214F21D0201F078B2E2C6
:100303002401FFE433FEC36480948050030201F0B0
:10031300D3EF9407EE6480948040030201F0E2FF80
:1003230008E2FE75F008A4246F2FF8E2FCED146CCC
:1003330060030201F0EE75F008A4242E2FF8E230DA
:10034300E3030201F078B4E204F278B3E2FF78B495
:10035300E2FE2406F8EFF278B2E204FF741A2EF8F4
:10036300EFF278B2E204F21D0201F0E478B3F2187E
:10037300F278B3E2B4070618E26407604078B4E2A7
:10038300FF241AF8E2FE74192FF8E2C39EFFBF019F
:100393001278AFE2B401051209AC80001207AE78FF
:1003A300B2801078AFE2B4010280031209D11207C0
:0F03B300AE78B3E204F278B4E214F280B480FEC4
:1005150078B2E2FF08E275F008A4242E2FF8E24431
:100525000F648F702778AFE270030205F078AFE2B1
:10053500B401030205F378AFE2B402030205F678CD
:10054500AFE2640360030206000205E578B2E2FF4C
:1005550008E275F008A4242E2FF8E2440F644F70CA
:100565002078AFE27002807878AFE2B40102807B38
:1005750078AFE2B40202807678AFE26403707C80E3
:100585007078B2E2FF08E275F008A4242E2FF8E295
:10059500440F642F702078AFE27002805478AFE288
:1005A500B40102803B78AFE2B40202803E78AFE24C
:1005B50064037047803878B2E2FF08E275F008A45A
:1005C500242E2FF8E2440F641F703078AFE27002DA
:1005D500801C78AFE2B40102801778AFE2B402055F
:1005E5001209AC800C78AFE2B403101209D11209DC
:0C05F500D11207AE78AFE2FF1209F62227
:1003C20078B1E2FF2406F8E2FE78B3E2FD6E600344
:1003D200020475741A2FF8E2FF78B2E2FE6F60032E
:1003E200020475ED7006EE70030204757803E27084
:1003F2001612093578B3E22F75F008A4242E2EF8D0
:10040200E2F4700302048D7800E270161208E078BC
:10041200B3E22F75F008A4242E2EF8E2F470030242
:1004220004AA7802E2701612095D78B3E22F75F021
:1004320008A4242E2EF8E2F470030204C478B1E278
:1004420014F278B1E2FF2406F8E2FE78B3E2B506D0
:100452000C741A2FF8E2FF78B2E26F6005120515EC
:1004620080E078B1E260030205141209D11209D1C9
:100472000200037803E2701812093578B3E22F758F
:10048200F008A4242E2EF8E2F470051209D180356A
:100492007800E270151208E078B3E22F75F008A434
:1004A200242E2EF8E2F47002801B7802E2704312CE
:1004B200095D78B3E22F75F008A4242E2EF8E2F439
:1004C20070301209AC1207AE78AFE2FF12098578DC
:1004D200AFE2FF1209F678B2E2FF08E275F008A473
:1004E200242E2FF8C000E2FF78AEE2FEEF5ED000CD
:1004F200F22278B1E2FF2406F8E2FE78B3E2B50612
:100502000C741A2FF8E2FF78B2E26F60051205153B
:0305120080E02264
:100601007805E2FF6403604FEF146018146026243C
:10061100027036E4FF120AF17F0A7E0012091512F8
:100621000AA680207F02120AF17F0A7E00120915B4
:10063100120AB9800F7F03120AF17F0A7E001209A4
:1006410015120ACC7F05120AF17805E204F27F0A3D
:100651007E0012091580A9E47805F278B0E2D394FE
:1006610001403108E2FF2406F8E2FE78B3E2FDB56D
:10067100060C741A2FF8E2FF78B2E26F601678B1B7
:10068100E204F2E2FF2406F8EDF278B2E2FE741A17
:100691002FF8EEF2E478B0F212074678B2E2FE08E3
:1006A100E275F008A4242E2EF8E2FE44F0FDBDFF11
:0806B10007EF24F0FFEE5FF2F9
:0106B900221E
:100ADF001208AA7FF47E011209151203C212060131
:020AEF0080F88D
:1006C600020ADFE493A3F8E493A34003F68001F261
:1006D60008DFF48029E493A3F85407240CC8C33335
:1006E600C4540F4420C8834004F456800146F6DF04
:1006F600E4800B0102040810204080900A1AE47E70
:10070600019360BCA3FF543F30E509541FFEE493F8
:10071600A360010ECF54C025E060A840B8E493A3BF
:10072600FAE493A3F8E493A3C8C582C8CAC583CAEA
:10073600F0A3C8C582C8CAC583CADFE9DEE780BEA2
:010A3B0000BA
:10080700BC000BBE0029EF8DF084FFADF022E4CCD5
:10081700F875F008EF2FFFEE33FEEC33FCEE9DEC9E
:10082700984005FCEE9DFE0FD5F0E9E4CEFD22EDE4
:10083700F8F5F0EE8420D21CFEADF075F008EF2F2E
:10084700FFED33FD4007985006D5F0F222C398FD1F
:050857000FD5F0EA22BC
:00000001FF
